:100000000C9446000C945D000C945D000C945D0013
:100010000C945D000C945D000C945D000C945D00EC
:100020000C945D000C945D000C945D000C945D00DC
:100030000C945D000C945D000C945D000C945D00CC
:100040000C945D000C945D000C945D000C945D00BC
:100050000C945D000C945D000C945D000C945D00AC
:100060000C945D000C945D000C945D000C945D009C
:100070000C945D000C945D000C945D000C945D008C
:100080000C945D000C945D000C945D0011241FBE67
:10009000CFEFD0E4DEBFCDBF11E0A0E0B1E0EAECED
:1000A000F1E000E00BBF02C007900D92AE30B10747
:1000B000D9F70E9488000C94E3000C940000CF93C1
:1000C000DF9300D01F92CDB7DEB789837B836A832D
:1000D00089818A3031F48A819B81BC018DE00E9444
:1000E0005F0080EC90E0FC018081882F90E08072BE
:1000F00099270097B1F386EC90E02981FC012083D9
:1001000080E090E00F900F900F90DF91CF910895D5
:10011000CF93DF9300D01F92CDB7DEB781E290E09E
:10012000FC01108282E290E02FEFFC01208387E245
:1001300090E02FEFFC01208388E290E0FC01108228
:1001400080E290E0FC01808180778A8380E290E009
:10015000FC0180818F708B8319828A81803319F42E
:100160008981806889838B81882319F089818062E5
:1001700089838B81833018F08981806189838B81A9
:10018000853018F08981886089838B81873018F0E9
:100190008981846089838B818A3018F089818260AB
:1001A00089838B818D3018F08981816089838B816F
:1001B000853018F489818064898388E290E0298100
:0A01C000FC012083BDCFF894FFCFAF
:0E01CA0000000002000000005F0000000000C6
:00000001FF
